:020000040800F2
:1000000000220020F5790008414200084342000820
:10001000454200084742000849420008000000002D
:100020000000000000000000000000004B4200083B
:100030004D420008000000004F42000851420008F5
:100040000F7A00080F7A00080F7A00080F7A00086C
:100050000F7A00080F7A00086D4200080F7A000836
:100060000F7A00087D4200080F7A00080F7A000816
:100070000F7A00080F7A00080F7A00080F7A00083C
:100080000F7A00080F7A00080F7A00080F7A00082C
:10009000AD4B00080F7A00080F7A00088D42000867
:1000A0000F7A00080F7A00080F7A00080F7A00080C
:1000B0000F7A00080F7A00080F7A00080F7A0008FC
:1000C0000F7A00080F7A00080F7A00080F7A0008EC
:1000D0000F7A00085D6200080F7A00080F7A0008A6
:1000E0005B4200080F7A0008B14B000800F002F8EC
:1000F00000F065F80AA090E8000C82448344AAF15D
:100100000107DA4501D100F05AF8AFF2090EBAE85A
:100110000F0013F0010F18BFFB1A43F0010318473B
:10012000D0980000F09800000A444FF0000C10F83E
:10013000013B13F0070408BF10F8014B1D1108BF65
:1001400010F8015B641E05D010F8016B641E01F805
:10015000016BF9D113F0080F1EBF10F8014BAD1C55
:100160000C1B09D16D1E58BF01F801CBFAD505E073
:1001700014F8016B01F8016B6D1EF9D59142D6D3CD
:10018000704700000023002400250026103A28BFF5
:1001900078C1FBD8520728BF30C148BF0B607047F9
:1001A000642907F06585782907F09E85632907F0A3
:1001B0008687002070471FB51FBD10B510BD07F022
:1001C000A1FF1146FFF7F7FF03F06FFD07F0BFFF38
:1001D00003B4FFF7F2FF03BC05F0A2FF412100F8D2
:1001E000601F88214170B0F86C10C170090A01715C
:1001F00000218170704770B50E4604460025B0F8A6
:10020000C800294602F095FA012E02D1A06D03F034
:100210008BF894F8E0003043C0B203F08AF830B1B4
:10022000D4F870010125401CC4F8700106E004F008
:100230009CF8C4F8F405012084F8F305284670BD45
:100240002DE9F05F4FF00009984693460F460646A9
:100250004C46FC4D4FF0010A17E000BF56F8241041
:10026000A94204D0204600F0F7FD012812D098F8EA
:1002700000100AFA04F0814388F80010204600F0CC
:100280004DFE00BF46F82450641CBC42E6DB4846E5
:10029000BDE8F09FD946F5E72DE9F04F04464378D5
:1002A00000F1BF0A97B0F2300F90884604F59C70B9
:1002B000FF220126002504F160014FF0020B04F239
:1002C000F95904F180070D90092B40D2DFE803F0C3
:1002D00005BFE5F43FF3F2F178002078002860D004
:1002E000012802D0022832D132E0182002F094FA1C
:1002F000B4F8CC0002F0ABFAE08CA4F8BF00504692
:1003000002F0AFFAE08CC4F8840102F0A5FA84F898
:1003100002B0667084F8E26084F8F450C4F81051BA
:1003200040F6411502F063F808B141F64115A07A94
:10033000042801D145F080050721284602F011FD6F
:100340002046FFF74BFF04F010F8C4F8E8003FE246
:10035000E08CA4F8BF00504602F083FAB4F8CC0059
:1003600002F075FAE08C00F0030184F8BE1002F090
:1003700073FAE08CB0F5004F01D184F88C61002055
:1003800002F04AFA002002F09AFD06206070002078
:1003900003F048F8002003F06FF82046FFF71EFF37
:1003A00016E2002002F038FA002002F088FD00205A
:1003B00003F038F8002003F05FF80620607007E2D1
:1003C0000A2001F068FC0078042871D1656084F887
:1003D000E250A0786070A57003F0C7FFC4F8E80091
:1003E000032003F0A3FF984F1021384606F06BFE60
:1003F000964E0120C6F8FC5604F00AF9022005F0DA
:100400007EFED6F8FC060028FDD0002004F000F99E
:100410001021384606F055FE01F0CDFE01F0CBFE6E
:1004200001F0C9FE01F0C7FE01F0C5FE032003F094
:1004300065FF012002F008FFA08B01F0F9FF504694
:1004400002F00FFA01F05FFD01F047FDD6E3A0785E
:1004500002281FD194F8E210E1B114F8F40F401C07
:1004600004F81F09082044F8D1BC04F8D40C02F0A9
:10047000BBFB012204210F9B0D98FFF7E1FEC4F89E
:10048000A700607FA077657703F06FFFC4F8B30023
:10049000D53CB3E36070A570B0E3207801280CD0A0
:1004A00094F8FD0084F86A000AD14FF0810009E059
:1004B000A3E310E102E1A4E058E094F8F400F1E7CE
:1004C0004FF0710084F869004FF00D03A4F8C830B4
:1004D00094F8CA0084F8620000F1010084F8CA00B0
:1004E00094F8BF0084F8670094F8C00084F86800AE
:1004F00084F8652084F866204FF00002184604F165
:100500004A0402F005F9C82002F0D9FC14F84A1D8B
:100510004FF6FF7001291ED094F8FD2002F8095013
:1005200084F8E1B0216D00EA410000BF02F07AFFDB
:1005300084F8F25084F8F15084F8E0B05D46B4F8E5
:10054000C800002102F0F5F8022002F0F2FE0520BA
:100550006070E57051E394F8F420042102F809502A
:1005600084F8E110216D00EA8100DFE7207801289E
:1005700009D000BF94F8FD0084F86A0006D100BFDE
:1005800094F8F20004E094F8F400F5E794F8F10030
:1005900084F8890002D14FF0820001E04FF073002F
:1005A00084F869004FF02C03A4F8C83094F8CA000E
:1005B00084F8620000F1010084F8CA004FF00002E4
:1005C000184604F1C20402F0A3F8A577C23C012149
:1005D0002046FFF710FE50B12078012803D02046B6
:1005E00001F0DAFA0AE3667084F802B006E3052047
:1005F00060700320E07020780128ABD184F8E260BD
:10060000FBE20B2001F047FB01460078012808D0EF
:1006100000289FD0042801D06660EEE284F8F060E4
:10062000EBE26560E278032A12D094F8F00001282A
:1006300015D0D1E90201022AC4E9340117D00B2AEE
:1006400036D037E0FFFFCDAB000801407802002034
:1006500020780128C7D0204601F09EFA2EE02046DF
:1006600001F0AAFA84F8F05084F8E050C6E222784B
:10067000012A1AD0D4E90E23801859416FF30800DB
:10068000C9B2020A42EA0162A265A28B101845EBC8
:100690000108C4F8840084F88880386DC4F86B00C1
:1006A00097F8540084F86F0004E0D4E90C23E3E7E2
:1006B0000420E070062060704FF0000894F8E0001D
:1006C00090B184F8E050207800B166600720607037
:1006D000B8F1000F86D05FEA080073D0022807D077
:1006E000B8F1040F8CD174E2002002F075FEEAE745
:1006F0000F2001F0D0FA00210746039104910591E3
:100700000691084684F8E310797F01F0CC0188292E
:1007100030D08C291FD0C82912D0CC2936D1D7F897
:1007200029000390D7F82D000490D7F821000590F8
:10073000D7F82500069097F8310007F1310525E03C
:10074000D7F823000390D7F827000490B7F82100CA
:10075000ADF8140009E0B7F82900ADF80C00D7F89F
:1007600021000590D7F82500069097F82B0007F197
:100770002B050BE0B7F82300ADF80C00B7F821000B
:10078000ADF8140097F8250007F1250594F8E2105C
:1007900009B92178B9B180469DF80C0048F2010EE4
:1007A000824600F00300049006904046B8F1730FB3
:1007B00073D00EDC70284CD071281BD0B8F1720FAA
:1007C0000CD146E017E206206070002002F077FBB3
:1007D00014E281280ED0B8F1820F5ED0062060703E
:1007E000002002F06CFB387F8006F1D5102001F06C
:1007F00052FA03E2D7E90201C4E936016978B8F197
:10080000810F0CD00698204480F8FE10E18C7145D1
:1008100011D1BDF80C00B0F5004F06D00BE00AF086
:100820000700204480F8F510F0E7B4F80411B86927
:100830000844C4F80C01B8780C2802D00E2805D062
:10084000DAE0052060700920E070CCE707206070D6
:10085000C9E7E8794FF40043401CC0B20690BDF8E8
:100860000C0098420BD12078012808D16878A9782B
:1008700000EB012000B2C4F810010020E062B8785B
:100880000C2805D00E2822D02078012806D009E0B7
:10089000052060700A20E07019E071E094F8F21011
:1008A000C9070CD1E18C714503D194F8F1205207AE
:1008B00005D4994206D194F8F110890702D5032096
:1008C000607004E0012835D0204601F065F9B8F1E8
:1008D000700F35D094F88C01002884D094F8FD0076
:1008E00006998842B1D184F8FE0010F809009DF8FD
:1008F000141003280AEB010000F0030004EB800051
:10090000D5F80310C0F858119FD104F1F103022269
:10091000042104F5AC70FFF793FCC4F87C0194F853
:10092000F10084F8F300002084F8F100B869C4F8FD
:10093000880158E7667084F802B084F8E260C6E780
:1009400094F8F4200699FE488A4204990FD104EBEA
:100950008102D5F80310C2F838118142E9D0049918
:1009600094F8F2008E40304384F8F2003BE704EB49
:100970008101D1F838218242DBD0C1F8380132E759
:100980000021059195F82030119394F8BE300E9314
:1009900003EB8303DB1DDFF8A8B3DBB20A4608468E
:1009A0000993B8F1820F03D0B8F1730F0AD01AE09F
:1009B0000AF00703234495F801C093F8F530634526
:1009C0001AD110E0069B95F801C0234493F8FE303D
:1009D000634511D194F88C3173B9E38CA3F5004CC5
:1009E000BCF1030C08D0E38C734509D1BDF80CC0F1
:1009F000BCF5004F02D003E0062028E784F8E4604D
:100A0000C4F88031DDF838C00123119E03FA0CF3DD
:100A100033427DD0D7E902E600230596A365AB7982
:100A2000D5F8026063F30702099B603405EB030C01
:100A30009CF80430DCF800B063F30700EB7FD5F8D6
:100A40001BC063F30701BBEB060360EB0202D2B2EB
:100A5000CDE91123256F743494E84C00D43CEB1A93
:100A600062EB06061493059BBEEB050563EB0203E0
:100A7000F6B20B96DAB2CDE91525BCEB0B0B61EBA8
:100A80000001C9B213910B99149807F06FFE054647
:100A90000E465846139907F069FE2A46334607F07A
:100AA00005FF04910890DDE9151007F05FFE05468B
:100AB0000E46DDE9111007F059FE2A46334607F0CD
:100AC000F5FE049B089A08F031F804910C900B99FC
:100AD000149807F04BFE06460991DDE9151007F062
:100AE00045FE3246099B07F0E7FB0B910290584602
:100AF000139907F03BFE05460E46DDE9111007F09D
:100B000035FE2A46334607F0D7FB0B9B029A00E0DE
:100B10000CE007F0D1FB0B46024604990C9807F055
:100B200087FC07F0DDFDC117834605919DF80D1088
:100B3000B8F1820F0AEB0120C4F8840112D00699A3
:100B400004EB8101C1F848B194F8F80510F90910D7
:100B5000002939DB494249B200F8091094F8F80538
:100B600071B331E000F0070004EB80000122C0F80F
:100B700018B104210F9B0D98FFF762FBC4F87C01AC
:100B800094F8F20084F8F300002084F8F2006C4A34
:100B900005998BEA020008430ED094F8BE10504627
:100BA00000F0A8F994F8BE100120884004EB810100
:100BB00084F8F200C1F838B1B869C4F88801C3E715
:100BC0004FF0FF3100F8091001F09DF901F085F9AF
:100BD00012E7112001F05FF880780C2802D00F286E
:100BE00005D00BE0052060700B20E07006E0204689
:100BF00000F0E2FF02E0606800B96660606817B06C
:100C0000BDE8F08F2DE9F05F834600244D480321B5
:100C100008F0C2FB05464C4908F006F908F070F8E8
:100C200007F0AAFA07F05CFD00EB4000000108F0B5
:100C3000BDF90146284608F08FF8444DE97B79B1AB
:100C4000434E012911D0434908F0C8F94FEA060183
:100C500008F082F80746A87A10F0030F07D028E0C2
:100C60003D4908F0BBF93D49F2E73D49ECE780100A
:100C70000E281ED2DFE800F01D1B0F071D180D1DEA
:100C80001D150A1D1D124FF08B4412E04FF08A44CF
:100C90000FE0344C0DE04FF089440AE04FF08844F7
:100CA00007E04FF0874404E04FF0864401E04FF046
:100CB000854426492C48A846C97B6D7A405C08F0DB
:100CC00075F9012D21467DD008F046F8274900BF6F
:100CD00008F084F905460020394608F03DF808F090
:100CE0000FF8DFF88C9000224B4607F0A1FB04467A
:100CF0000E46284608F004F88A4605462246334642
:100D000007F0DAFA1B4A1C4B07F092FB07F0E8FCED
:100D100000F11006584607F012FD00F087F844462F
:100D2000C4E90C010BEBDB70642101EB600007F000
:100D300006FD00F07BF8C4E90E0138461EE0000015
:100D4000FFFFCDAB000098410000A54378020020D2
:100D50000046A846C3350043853400460045284870
:100D60007B3480440000C044C8940008B341823FF3
:100D700000408F400D71AC8BDB68F03F07F0C0FF87
:100D800000224B4607F054FB2A46534607F094FADC
:100D900007F0A6FCE17B4FF49677E9B106F5967172
:100DA000C4E9141600F5967007F0C9FC00F03EF88F
:100DB000C4E910012846514600F038F8000A40EA1C
:100DC000016000E004E01030C4E91207BDE8F09FC4
:100DD00007F0C2FF03497BE706F52F71E0E7024900
:100DE000C8847047EA5B7E3F7802002010B5A0B04F
:100DF000044680220C49684607F083F8202003F05F
:100E00006AFB204602F02CFC002269467F2001F09C
:100E10007FFC00217F2001F08CFC002002F089FA89
:100E200020B0002010BD00000898000810B5F64A58
:100E3000F64B07F0FDFA0022F54B07F0F9FABDE892
:100E4000104008F00DBA10B507F079FCBDE810406D
:100E5000ED4AEE4B07F02ABD2DE9F0410746084662
:100E6000FFF7F1FF4FF09852EA4B07F01FFDEA4AF7
:100E7000E94E02EBC70220360446C2E90001707C4D
:100E80000D4660B1307A052806D0E44AE44B20468E
:100E9000294607F0CDFA04E0E24AE34BF7E72046A3
:100EA000294607F0D7F90146727A307A02F076FCCB
:100EB00022462B4607F02EFE002204460D4613461E
:100EC00007F0B8FC06D30022D84B2046294607F08D
:100ED000EBFD02D20020BDE8F081CF48203800EBC6
:100EE000C700C0E90045D6F87801401CC6F8780173
:100EF0000120F0E7C84AC84B203A02EBC102603B30
:100F0000D2E9001203EBC000C0E900127047C249E9
:100F1000603901EBC001D1E900017047BE4B0021EF
:100F200003EBC003C3E90011BB4B203B03EBC00044
:100F3000C0E90011704730B5B7490020A1F1200287
:100F4000BB4C01EBC0050023C5E9003402EBC00532
:100F5000401CC5E900340428F2DB30BDAE49203125
:100F600008707047AC48203000787047AA4920319B
:100F70000022D1F87C01C1F87C217047A6482030BE
:100F8000D0F880017047A4482030D0F88401704721
:100F9000A1482030D0F8880170472DE9F0419E4CDF
:100FA000002720343D463E460120E76502F081FAE5
:100FB00084F8CA609F49C7EBC70004EB0022C4F85D
:100FC000786100BF02EB85006D1CC0F83811042D5C
:100FD000F8DB002002EB8003401CC3F8181108283E
:100FE000F8DB78E70FB4A02270B58B4C00252034D5
:100FF0008DF8AB5094F8F1052C9E00EB800004EBCB
:10100000401004A900F5C87006F07BFF94F8F105C4
:1010100000EB800004EB401080F8906194F8F1053B
:10102000401CC0B284F8F105062801D184F8F155BE
:1010300070BC5DF814FB014610B50F2001F00301F0
:10104000012903D0022901D003290FD07249203190
:1010500091F9E120002A09DDB1F85000504380B237
:1010600002F0E0F9002002F0B7F90E2010BD10B533
:10107000694C2034A16CA06D401A02F055F9012092
:1010800002F0AAF9002813D0606D4FF6FF7101EA53
:10109000400002F0C7F9002002F09EF9B4F85400B5
:1010A00080B202F0BFF9D4F87401401CC4F8740196
:1010B00010BD2DE9F041584C00262034804694F8AC
:1010C000E1000F46354628B9002002F0ABF90020B8
:1010D00002F0D2F9F8070CD094F8E110204601296B
:1010E00000D1012690F88C1179B994F8BE0003283C
:1010F0000BD094F84400226C0306A16D43EA122041
:101100000818A065F90708D00EE0002002F08AF95F
:10111000002002F061F90E20DDE694F9E11094F868
:10112000BE201144032900D086B3022184F8E010C8
:1011300002F0FAF8032002F0FCF8A0B1002001F060
:10114000BEFE84F8E050D4F87001401CC4F8700171
:1011500094F84410226C0B0643EA1221A06D491842
:101160004018A06516E0206C94F84420000AA16D98
:1011700040EA026008184FF00C05A06503F0F5F88E
:10118000C4F8F405012084F8F30506E0FFE7B8F1A0
:10119000000F04D0FFF76BFF0E2528469BE60020CA
:1011A00002F040F9002002F017F9F5E70FB41A48F1
:1011B000F0B520300146077891F9E1300024591E3E
:1011C00044250426A5B04AB2022F35D0DFB180F8FD
:1011D000E1200020FFF72FFF8DF8AA008DF8A8402E
:1011E0008DF8A950ADF8AC4090222EA968462496FF
:1011F00006F087FE2AAF97E80F00FFF7F3FE25B051
:10120000F0BC5DF814FB23E0FA48CE3B1835B13D45
:1012100080842E4119DDB14158020020F6285C8FF0
:10122000C2F5F43F295C8FC2F528F83F0088D3400F
:10123000E0FFEF40FFFFCDAB002B06DD80F8E120A3
:1012400000210846FFF735FFC6E7002002F0EAF864
:1012500025B00020F0BC5DF814EB02F0BDB80146EB
:1012600010B50F2001F00301FE4CE28CB2F5004FE7
:101270000AD101290ED1B4F8500080B202F0D2F8A0
:10128000002002F0A9F80E20E18C48F20102914200
:1012900000D10F2010BD2DE9F0470F46F14C064656
:1012A00000F007014FF01308DDF82090D819A4F8DA
:1012B000C8800088A4F8650094F8BF0084F867002F
:1012C00094F8C00084F8680004EB81002144D0F851
:1012D0001871E76611F8F57F002584F870700D70BD
:1012E0009918497884F8F41094F8CA1084F86210B8
:1012F000491C84F8CA10DC49D0F818218A420CD065
:1013000094F8BE1001228A4084F8F22004EB810197
:10131000D0F81801C1F8380107E094F8BE0004EBDA
:101320008000C0F8381184F8F250E06C01F0C7FD7D
:1013300094F88C01C8B1B4F80211B4F80431B9FBC7
:10134000F1F201FB1290F2B25A43101A4A085242CB
:10135000824200DD0844C4F81001B4F8101184F88A
:101360006A10090A84F86B1005E0C4F8105184F87B
:101370006A5084F86B50702084F869000021404660
:1013800001F0D7F904F160014046BDE8F0470022C2
:1013900001F0BEB970B5B34C13261944A4F8C86067
:1013A0000988A4F8651094F8BF1084F8671094F8C1
:1013B000C01000F0030084F8681004EB80012044A2
:1013C000D1F84811E16610F8FE1F002584F870106E
:1013D00005709818407884F8FD0094F8CA0084F8E5
:1013E0006200401C84F8CA0054F84C0F01F067FDFD
:1013F000C4F8C450A577E5777220607700213046A5
:101400004C3C01F096F904F160013046BDE87040B3
:10141000002201F07DB92DE9F04F4FF00008D1B066
:101420000446CDF83881C346C246CDF83C8102F06F
:101430009CFF2C9020792AA90F25DFF8289225916E
:1014400002280DD0042875D09022684606F059FD78
:1014500026AC94E80F00FFF7A9FE51B0BDE8F08F6D
:10146000E088ADF89C00207A412801D0612804D1A1
:10147000607A00F0CC00882833D063274EA801F0B2
:10148000B6F9E1882DA80022019001F05EF99DF8DF
:1014900038119DF839019DF83B2101EB00209DF8A2
:1014A0003A11090401EB026108442A909DF83C01BD
:1014B0002A9ACDE9280818EB020240EB0801CDE991
:1014C000282100062A99022F00EB11202B908DF87D
:1014D00098808DF899708DF89A5008D090222599AF
:1014E000B3E74FF0090B4FF0070A0227C6E726A91A
:1014F00001EB0A000126027F407F02EB002085B24B
:1015000099F8000000287CD04C46012804D194F8BA
:10151000E120521E84F8E12059440B7F732B0ED03A
:1015200009DC48F20202702B7AD0712B08D0722BA2
:1015300067D175E046E1812B3ED0822BF8D118E1CE
:1015400094F88C31002BF3D1E38C934259D80128C5
:101550007ED005F003020092487F62F31F108030B6
:10156000C0B284F8F805204480F8F985032002F021
:10157000DDFE5A4651462846019BFFF70BFF48F215
:101580000100854204D0B4F8540080B201F04AFF53
:101590002B98A065E08C411B01F0030184F8E11059
:1015A0000321FFF786FD00998DF89A0004EB810175
:1015B0002D48C1F848012FE00128C9D005F00702E5
:1015C0000292487F62F31F1084F8F805204480F8E7
:1015D000F985032002F0AAFE2C9800905A46514645
:1015E0002846019BFFF757FEB4F8540080B201F083
:1015F00019FF2B98A065032084F8E100E08C0221FC
:1016000000E0B8E0FFF755FD029A8DF89A0004EB70
:1016100082011548C1F81801032002F06FFEAAE00C
:10162000012830D0032847D04FF00E08702B64D02B
:1016300094F88C0130B194F8FD00204490F8F9152D
:1016400002297DD0E08C90426DD194F8F80500E03D
:10165000A4E0011991F9F905002864DB401C81F828
:10166000F90503E078020020FFFFCDAB94F8E1001C
:10167000401E89F8E100002001F0D4FE002001F0B6
:101680001EFC012166E094F8F400204490F8F9155E
:10169000491C80F8F9152846FFF7CDFC8DF89A0013
:1016A00005F0030202EB820094F8F21006FA02F24F
:1016B000114384F8F21017E094F8FD00204490F8EC
:1016C000F915491C80F8F9152846FFF7C8FD8DF873
:1016D0009A0005F0030101EB810094F8F12006FA6D
:1016E00001F10A4384F8F120C01D20444E9940F8CE
:1016F000691F9DF83C1101713DE094F8F80501194E
:1017000091F9F90500280FDB94F9E120002A0BDD9F
:10171000401C81F8F90594F8E100401E89F8E100C9
:10172000042117E00CE01BE0032002F0FFFD002085
:1017300001F078FE002001F04FFE8DF89A806BE7F3
:10174000032180F8F91594F8F100052140F0080014
:1017500089F8F1002846FFF7ACFC8DF89A000AE002
:10176000002001F05FFE002001F036FE8DF89A8027
:1017700001E0012812D089F8E3609022249768469E
:10178000259906F0BEFB26AC94E80F00FFF72AFC73
:10179000D9F86C01401CC9F86C015EE614F8E10F41
:1017A0009022401C20706846259906F0AAFB26ADC1
:1017B00095E80F00FFF7FAFCA67054F88B0F401C59
:1017C00020604AE68DF89A5099F8000002280DD161
:1017D00099F9E100002809DD401E89F8E100B9F817
:1017E00026000621FFF765FC8DF89A008DF8988099
:1017F000042000228DF89900ADF89C802892CDE954
:10180000292824909022CDF8AC806846259906F0CE
:1018100078FB26AC94E80F00FFF7E4FB1DE6F0B57B
:10182000D1B000244E944F94077902F09EFDF84DFC
:101830002AAE2C90012F02D0062F44D055E04EA89E
:1018400000F0CAFF9DF838019DF839119DF83B2141
:1018500000EB01209DF83A110127090401EB026118
:1018600008442A909DF83C012A9ACDE92804A21840
:1018700040EB0401CDE928212A99000600EB112054
:101880002B9085F8E340B5F8C8208DF898408DF886
:101890009A40ADF89C208DF8997005F160012DA853
:1018A00006F02FFB902231466846249706F029FB6C
:1018B00026AF97E80F00FFF795FBD5F86801401CAD
:1018C000C5F8680111E006208DF898408DF8990060
:1018D0002490ADF89C4090223146684606F011FBFA
:1018E00026AF97E80F00FFF77DFB85F8F34551B071
:1018F000F0BD70B50025C649C5EBC50001EB00245D
:1019000005EB850004EB4010A02100F5C87006F03F
:101910002AFB6D1C062DF3DB002084F8F10584F80A
:10192000F00584F8F20570BD2DE9F041B84C0220B5
:10193000002620706670354684F8E26040F60F009D
:1019400000F03CFC0746032001F07EFC38004FF01D
:10195000FF3701D0384621E4FFF71FFB4DF6CA6080
:1019600024F8CC0F2575E5752576FFF7C2FF44F8FE
:101970000D5C44F8095C0020656401F082FA0020E7
:1019800001F06CFA0121A34801F07BFDAFF279511F
:10199000AFF2751001F0A4FA84F82755C4F8A450EA
:1019A000C4F8A85067750020C6EBC601CC3C6FF0A8
:1019B000090204EB01210B18401C83F8F925FF28CC
:1019C000F9DD00208D65C6E700F0F5BB904988621F
:1019D00070472DE9F0470E468D4D01780446297277
:1019E0006178697361782973A1786972E178E97324
:1019F0002279AA726279EA720020A279AA73287405
:101A000022896A82022900D10120687405F1080048
:101A1000012100F04AFD20787F4F00EB400017F8CD
:101A200020002875297AA07800F0F9FC08B1411C43
:101A300007D12078A17800EB400007EB800050F838
:101A40002100A86105F1140000F0DBFC00F096FC19
:101A50004FF6FF7902281CD003281AD0A07800F096
:101A600050FE4008A88301D0484506D1A0786B49B4
:101A700001EB400030F8021CA983A88B00F0DEFCCB
:101A8000A88B00F0D5FCA88BE883207904281DD012
:101A900025E02878022810D000200027A846EA7BFD
:101AA000297A00F04FFCA8F81C0008B14845E4D1A1
:101AB00098F80800052802D002E00120EDE7012790
:101AC000574830F81700A8F81C00D6E7202002F08D
:101AD00002FD002001F080F9082002F0FCFCF088F3
:101AE000FFF774FFB088A5F802013188A5F804114A
:101AF0003088E8627088A5F80601801E4843C5F862
:101B000008013089BDE8F047FFF77CB8404890F8FD
:101B1000F40070473E49084490F8F50070473C498E
:101B2000084490F8FE0070473948D0F878017047B3
:101B3000374900F00300403901EBC001D1E9000151
:101B40007047334900F00300203901EBC001D1E9AF
:101B5000000170472E4900F00300403910B501EB39
:101B6000C0010022D1E900012E4B06F09FFEBDE826
:101B7000104006F0B5BD264900F00300203910B52D
:101B800001EBC0010022D1E90001264B06F08EFED8
:101B9000BDE8104006F0A4BD10B506214170022139
:101BA0000170002001F03EFC002001F065FCBDE862
:101BB0001040002001F083B970B50446C06D401C90
:101BC000E065002060602178022909D0012503200A
:101BD0000129E1780BD002292CD003293AD026E044
:101BE00006206070BDE87040002001F01BBC02269A
:101BF000022902D0032917D019E094F8F210C9077E
:101C000015D100BF84F8E2506570A67070BD000069
:101C10007802002080D023241494000874940008D3
:101C20007894000800408F4001F098F9EAE7657069
:101C3000A070EBE7E18C48F20102914203D194F8E5
:101C4000F120520706D5B1F5004FF0D194F8F1100C
:101C50008907ECD42046BDE870409DE7C34890F862
:101C6000F21501EB810100EB411090F890017047F3
:101C70000FB4A02270B5BD4C04A904F5AA602C9D38
:101C800006F03FF984F8505570BC5DF814FBB84974
:101C9000A02206F036B92DE9F047B44D8146002068
:101CA00095F8F01505F5E06601EB810105EB4114AF
:101CB00094F890715FB3804694F89101707094F835
:101CC0009201B070B4F89401B080D4E96601C6E91D
:101CD0000201D4F8A0013061D4F8A4017061D4F8F5
:101CE000A801B06104F5D6717F2205F21C7006F0E0
:101CF00008F9377084F82B9284F8908195F8F005F4
:101D0000401CC0B285F8F005062803D005E030700D
:101D1000707004E0404685F8F08585F8F205954836
:101D2000BDE8F0872DE9F043CFB00022FFF796FF22
:101D300001468E48C2EBC20200EB02242046FEF7A9
:101D4000ABFA00210028F9D001260025022811D184
:101D5000207801280BD1D4E90A100144D4F81001ED
:101D60000144C4F8EC10C4E9445084F8E46084F8F9
:101D7000E350656094F8E400012802D0002871D097
:101D800084E094F8E300002804D12078012802D0F0
:101D900002281FD07AE002F0E8FAD4F8E810401ADE
:101DA000D4F8EC10884271D984F8E4508DF898503A
:101DB00084208DF8990004202490ADF89C50902246
:101DC0002AA9684606F09DF826AE96E80F00FFF7B0
:101DD00009F95BE002F0C9FAB4F802114FF0020809
:101DE000B0FBF1F201FB120094F88C1103274FF0C5
:101DF0008009B9B1D4F80811814247D8172000F002
:101E0000A9F804F8DE7B01F0A9F8FFF772FD04F8E9
:101E1000DD8C04F8796C04F8789CA571E07F401C97
:101E2000E0771AE0E08C48F2010188422ED102F0FE
:101E30009CFAD4F80C11884228D3172000F08AF8B5
:101E4000277001F08BF8FFF754FD84F8018084F8C7
:101E5000658084F8669084F8E450172000F06FF8ED
:101E600014E0FFE72078022810D194F88C0168B1C3
:101E700002F07BFAB4F80211B0FBF1F201FB1200A0
:101E8000B4F80411814201D984F8E4604FB0002015
:101E9000BDE8F08310B5384C1021204605F013F949
:101EA000012004F02CF91021204605F00AF9052044
:101EB00004F025F9002000F064FF0021BDE8104087
:101EC000481E01F0DEBA2949C1F8FC0670472749CF
:101ED0000862012081F82400704710B5234C94F863
:101EE0002400012807D100211E20226A00F072F888
:101EF000002084F8240010BD1C4A9083D183012067
:101F000082F82500704710B5184C94F82500012878
:101F100008D1E08B00F092FAA08B00F089FA002043
:101F200084F8250010BD1148808B70470F48C08B86
:101F300070470E49002211F8F30F0A70704700F045
:101F40001F02012191404009800000F1E020C0F80B
:101F50000011704700F01F020121914040098000EC
:101F600000F1E020C0F880117047000078020020E6
:101F7000C8070020780900200008014008B551B1C9
:101F800040F0C0008DF80000C8B27F2909D88DF854
:101F9000010002200DE040F080008DF800000120DB
:101FA00007E040F080008DF80100C8098DF80200BC
:101FB0000320694601F084FC08BD08B589B28DF89C
:101FC0000020120A8DF8012080B26B460222FFF732
:101FD000D5FF08BD38B500236C46E254120A5B1CDD
:101FE000042BFADB89B280B223460422FFF7C6FF36
:101FF00038BD08B551B140F040008DF80000C8B2BE
:102000007F2907D88DF8010002200BE08DF8000031
:10201000012007E040F080008DF80100C8098DF82C
:1020200002000320694601F078FC08BD38B54FF086
:10203000FF3489B280B26B460422FFF7DAFF30B971
:1020400003216846425C491E02EB0424FAD520466F
:1020500038BD38B504466B46022200213620FFF712
:10206000C8FF0E2C2CD2DFE804F00F07152B2B2B0A
:102070002B1D392B2B44494E00208DF800009DF874
:10208000010000F0FE0019E09DF8000000F0FC00E7
:10209000401C04E09DF8000000F0FC00801C8DF85E
:1020A00000000DE09DF8000000F0B30040F0480093
:1020B0008DF800009DF8010040F080008DF80100CF
:1020C0006B46012200213620FFF758FF01221146FE
:1020D00036200DF10103FFF751FF38BD9DF80000D8
:1020E00000F0B3008DF800009DF8010000F07F00C3
:1020F000E4E79DF8010040F00200DFE79DF80100F1
:1021000000F0FD00DAE79DF8000000F0CF0040F09D
:102110002000C4E738B54FF6FF7489B280B26B4631
:102120000222FFF766FF30B99DF800009DF801100C
:1021300000EB012084B2204638BD08B503208DF89D
:10214000010001208DF800006B460222002136209C
:10215000FFF714FF4FF4004206212D20FFF72DFF5B
:10216000012003F0CCFF0120FFF773FF002008BD22
:1021700008B5010A8DF801108DF800006B460222A7
:1021800004212D20FFF7FAFE03208DF800006B4696
:10219000012206212D20FFF7F1FE00208DF800001E
:1021A0006B46012206212D20FFF7E8FE0A212D2093
:1021B000FFF73CFF08BD0021084637E72DE9FC4149
:1021C0000027064604208DF800003D46FE4C84F8AA
:1021D0007C7084F82D70C4F8807084F86970C4F83D
:1021E000847084F87D70C4F88870C4F88C70603492
:1021F000FFF7E1FFF54944F8600D884202D08817E7
:10220000BDE8FC810020FFF724FF6B46012200217E
:102210002420FFF7B3FE1E20FFF7AAFF1FFA80F865
:102220004FEA1820A073300704D50420FFF7A0FF61
:10223000C4F8840094F8840010F0FF0F09D0022045
:102240008DF8040001AB012212212D20FFF796FE2C
:1022500001E0C4F884500620FFF78AFF6060072081
:10226000FFF786FFA561A06004EB87007F1CC561B6
:10227000042FF9DBB0071AD5A07B2746012804D824
:102280001C20FFF775FFB86111E003280FD80D205F
:10229000FFF76EFFF8610E20FFF76AFF38620F202C
:1022A000FFF766FF78621D20FFF762FFB862C8483B
:1022B000F207007800F01F0104D018F01F0284F824
:1022C0002C2001D184F82C1070070CD55FF000058C
:1022D00005F11000FFF74CFF04EB85016D1C48630E
:1022E0000C2DF5DB06E0002004EB8001401C4D6363
:1022F0000C28F9DB300502D5FFF71FFF09E00521A7
:102300003620FFF707FF20F4007205213620FFF783
:1023100054FE0120FFF79DFE00210420FFF786FEFA
:10232000206300212620FFF781FE40F4A82200212F
:102330002620FFF74FFE002226213620FFF73DFE24
:1023400000205DE710B500239F4C022902D005292B
:102350000FD107E0022A01D012B10AE0E36908E0D8
:10236000236A06E0022A01D012B102E0636A00E0AB
:10237000A36AC007C00EC34098B210BD9248807BCC
:10238000704708B56B46042200212620FFF731FE76
:102390009DF802006B4640F005008DF80200042213
:1023A00000212620FFF7EAFD08BD08B501438DF89E
:1023B0000010080A8DF80100080C8DF802006B4629
:1023C000032208212620FFF7D9FD08BD08B50143E7
:1023D0008DF80010080A8DF80100080C8DF8020035
:1023E0006B4603220C212620FFF7C8FD08BD764866
:1023F000D0F884007047744840687047724880681D
:10240000704710B50446034601220B212A20FFF72E
:10241000B5FD62680021BDE810401E20DAE56D4A76
:10242000515C00EB4100684901EB8000006B704794
:1024300065490246C88200211820BEE5624902466D
:10244000888241F604012E20B7E538B504466B4674
:1024500001220E212B20FFF7CCFD9DF8000004F097
:102460001F0120F01F0001438DF800106B46012270
:102470000E212B20FFF782FD38BD38B504466D20B4
:102480008DF800006B46012240F606012E20FFF772
:1024900075FD41F6060114B140F2076201E041F218
:1024A00007622E20FFF789FD38BD2DE9F84F8A46D7
:1024B00004460578417948484FF00009C84630F88D
:1024C000117061784048491ECEB2C0F88010042DCA
:1024D00077D0072D75D000218B46217801733A49BA
:1024E000E279096B002A6DD021F48001016336483E
:1024F000217A4FF440334173217A026B03EA0141A0
:102500000A43026300210420FFF764FD3A4642F6C5
:1025100004012E20FFF751FD3046FFF7AEFF2D4F8F
:102520002E490522785D00EB8000431807212B20FF
:10253000FFF724FD264B01220E212B20FFF71EFD65
:102540002749012201EB0B030B212820FFF716FD81
:10255000785D244951F820200C212820FFF73AFD0E
:10256000E079214901EB8000A17930F811200221A6
:102570002720FFF722FD1D48042130F816202720D0
:10258000FFF71BFDE079F0B1A07804284AD028209D
:102590008DF80000202206212720FFF70EFD6B4654
:1025A000012226212720FFF7E9FC1148E17800EB02
:1025B000061050F8212008212720FFF70BFD628923
:1025C00018E022E023E027E0180A00203001CADEEC
:1025D000BA9400087C940008FC9400089C940008BD
:1025E000BB94000884940008CC940008D894000898
:1025F000DC94000841F24107BA4203D02021272091
:10260000FFF7DBFC608990B116E0012164E741F43B
:102610008001FF0801636AE7642206212720FFF793
:10262000CCFCC2E710208DF800000246B3E73A4622
:1026300020212720FFF7C1FCFE4F0C2123203A6800
:10264000FFF7C8FC07EB4600042182882320FFF730
:10265000B4FCA07958B1E079F74901224318002170
:102660002120FFF78BFC4FF003094FF0010805F024
:102670000F00290740EA116061784FF4402202EA16
:1026800081410843920002EA095108434FF40032A5
:1026900002EA4841084321794FF0F86202EA815189
:1026A0000843617940EAC16200211F20FFF792FCD4
:1026B000A07861780843E179000440EA4130DF4CBA
:1026C00040F40042002108202261FFF783FC5FEA0A
:1026D000CA7003D094F82C00FFF7B7FE5FEA8A7047
:1026E0000CD5A0693501E840C0F34E00FFF7A6FE07
:1026F000A069E840C0F34E00FFF79AFE0020BDE855
:10270000F88FCE49000110388969C14088B27047FE
:1027100010B514460244B2F5806F02D94FF0FF3075
:1027200010BD0B46821E21460920FFF727FC002022
:1027300010BDC24A10B5126940EA8150024300211F
:102740000820FFF747FC002010BD30B414460A46AD
:102750002146034630BC11204BE470B505461646B1
:102760000C460720FFF775FC2B46224631462520F4
:10277000FFF73FFCBDE8704008206AE438B5044626
:102780006B46022205211520FFF733FC9DF800005F
:102790009DF8011000EB012080B206F038F86FF0D0
:1027A000050206F0CBFDC4E9040100212E20FFF74D
:1027B000B1FC2080231D082200211220FFF719FC04
:1027C00007211520FFF7A6FC608000211020FFF7ED
:1027D0002DFC000DA08138BD0346052200211720E5
:1027E00007E40121172021E4002117201EE40346FD
:1027F000052200211520FFF7FCBB0121152015E45F
:102800000021152012E4012106200FE403460522D1
:1028100000210620FFF7EDBB10B50446002104207F
:10282000FFF704FC864908403CB120F4FF7004F433
:10283000FF71014341F0010201E020F001027F48F5
:1028400000210263BDE810400420FFF7C3BB02462D
:1028500002210320FFF7B1BB024600210320FFF74E
:10286000ACBB0346082200210120FFF787BB0346CB
:10287000082200210120FFF7BCBB2DE9FC5F0746C1
:10288000002603208DF80000344635466B460122B1
:1028900007212D20FFF772FB07F00F0749F22020D8
:1028A00041F62401062F11D2DFE807F01003080BD0
:1028B0000FED41F2240506460E2407E00D460646BC
:1028C00003E00D4606464E2400E003248DF8006028
:1028D000300A8DF801006B46022200212D20FFF7FF
:1028E0004DFB4FF008088DF800806B460122062151
:1028F0002D20FFF743FB02208DF800006B460122DC
:1029000007212D20FFF73AFB4FF088098DF8009042
:102910006B46012206212D20FFF730FB4FF0800A85
:102920008DF800A06B46012206212D20FFF726FB23
:1029300000268DF800606B46012206212D20FFF74E
:102940001DFB05208DF800006B46012207212D207C
:10295000FFF714FB8DF80040200A8DF801006B464C
:10296000022200212D20FFF709FB8DF800806B4625
:10297000012206212D20FFF701FB4FF0040B8DF8FB
:1029800000B06B46012207212D20FFF7F7FA8DF8E2
:1029900000906B46012206212D20FFF7EFFA8DF8FB
:1029A00000A06B46012206212D20FFF7E7FA8DF8E3
:1029B00000606B46012206212D20FFF7DFFA01247B
:1029C0008DF800406B46224607212D20FFF7D6FAEE
:1029D0008DF80050280A8DF801006B460222002174
:1029E0002D20FFF7CBFA8DF800806B4601220621DF
:1029F0002D20FFF7C3FA0A2003F081FB8DF8006059
:102A00006B46012207212D20FFF7B8FA8DF8004010
:102A10006B46012206212D20FFF7B0FA02208DF827
:102A200000006B46012207212D20FFF7A7FA8DF841
:102A300000B007E0C0940008C8940008180A0020FD
:102A4000FFFF47F06B46012207212D20FFF796FA82
:102A5000642003F054FB8DF800606B4601220721CF
:102A60002D20FFF78BFA8DF800606B4601220621BE
:102A70002D20FFF783FA0A2003F041FB012F04D039
:102A8000022F02D007E024251FE701AB0122082115
:102A90002D20FFF7AEFA0020BDE8FC9F7CB50D4667
:102AA000044601AB012208212D20FFF7A2FA9DF870
:102AB0000400800705D4F84805F068F84FF0FF30AF
:102AC0007CBD200E8DF80300200C8DF80200200A3A
:102AD0008DF801008DF800406B46042200212D2066
:102AE000FFF74CFAC5F302208DF801008DF8005075
:102AF0006B46022204212D20FFF740FA40208DF87A
:102B000000006B46012206212D20FFF737FA002036
:102B10008DF800006B46012206212D20FFF72EFACA
:102B2000012003F0ECFA01AB012208212D20FFF770
:102B300060FA9DF80400C007F2D000207CBD2DE9AA
:102B4000F041002605460F4634463046FFF781FA2D
:102B50000120FFF792FE39462846FFF79FFF3846CF
:102B6000FFF706FBA84200D10126641C052C01D00A
:102B7000002EF0D00420FFF780FE3846FFF7F8FA69
:102B8000A84201D1002401E04FF0FF340020FFF7FC
:102B900074FE2046BDE8F08108B504208DF80000E1
:102BA0006B46012202212C20FFF7E8F900208DF866
:102BB00000006B46012202212C20FFF7DFF908BD3F
:102BC00008B500208DF800006B46012202212C2060
:102BD000FFF7D4F902208DF8000001466B46012270
:102BE0002C20FFF7CBF908BDEAE7F8B5012604462B
:102BF0008DF800606B46324600213620FFF7BEF9A3
:102C000000258DF800506B46012206212C20FFF78D
:102C1000B5F98DF800506B4601220A212C20FFF7F0
:102C2000ADF9FFF7B9FF8DF80040200A8DF80100DB
:102C30006B46022208212C20FFF7A0F9FFF7ACFF1A
:102C40008DF800606B4601220A212C20FFF796F9CF
:102C5000FFF7A2FF8DF800506B46012200213620BD
:102C6000FFF78CF9F8BDF8B504208DF800006B462D
:102C700001220A212C20FFF781F9FFF78DFF0024A4
:102C80008DF800406B4601220A212C20FFF776F9CF
:102C9000FFF782FF01208DF8000002466B460021FD
:102CA0003620FFF76BF9012003F029FA76208DF822
:102CB00000006B46012204212C20FFF75FF98025DC
:102CC0008DF800506B46012202212C20FFF756F9A7
:102CD00088278DF800706B46012202212C20FFF717
:102CE0004DF96B46012203212C20FFF782F99DF854
:102CF00000004FF6FF7101EA002675208DF80000F4
:102D00006B46012204212C20FFF738F98DF8005082
:102D10006B46012202212C20FFF730F98DF800705C
:102D20006B46012202212C20FFF728F96B46012275
:102D300003212C20FFF75DF99DF800508DF800402D
:102D400035436B46012202212C20FFF717F98DF83D
:102D500000406B46012200213620FFF70FF928467C
:102D6000F8BD38B50C46024600212C20FFF725F9A6
:102D70008DF800406B46012206212C20FFF7FEF85B
:102D800038BD10B5044604213620FFF74FF914B1C1
:102D900040F4006201E020F400620421BDE810402C
:102DA0003620FFF717B970B50D460646FFF703FA50
:102DB0003A4CA0420ED0002133462A460846FFF77F
:102DC00018F9052003F09BF9FFF7F5F9A04201D0AF
:102DD000A01770BD002070BD38B500F003010120C0
:102DE00000EB411403218DF801108DF800006B46B3
:102DF000022200213620FFF7C1F8224612212D20A1
:102E0000FFF7DBF80120FFF724F938BD10B50446C1
:102E100000210420FFF70AF92149086314B120F4C6
:102E2000802001E040F48020086302460021BDE8D4
:102E300010400420FFF7CEB810B5194C02021A203A
:102E4000216B41F0804121630221FFF7B6F8226B2C
:102E50000021BDE810400420FFF7BCB810490A6B00
:102E600020B122F480500863012003E042F4805036
:102E70000863002081F82D000A6B00210420FFF771
:102E8000A9B808B500218DF8001005490A6B48B1B2
:102E900042F0005008E00000889800083001CADEC7
:102EA000180A002022F000500863000E8DF8000080
:102EB0006B46012203210420FFF760F808BD10B51E
:102EC000044600211A20FFF7B1F8C4F313026FF390
:102ED000130002430021BDE810401A20FFF77AB822
:102EE000FE4AC2E92201704708B56B460122002163
:102EF0000F20FFF77EF89DF8000000F0010008BDEC
:102F000008B5E0208DF800006B4601220321362031
:102F1000FFF734F8F0208DF800006B460122032102
:102F20003620FFF72BF808BD1CB56B4601220321A4
:102F30000F20FFF75EF89DF8000000F0800100F020
:102F40004000B1EB400F08D001208DF8040002468C
:102F500001AB03210D20FFF711F81CBD38B540204F
:102F60008DF8000000210E20FFF760F8044600F005
:102F700081FC0546002211460E20FFF72BF86B4618
:102F8000012200210D20FEF7F9FFD54A00210F2074
:102F9000FFF720F8FFF7C8FF224600210E20FFF7B9
:102FA00019F8284600F073FCCC49002081F87D0018
:102FB00038BD10B502210F20FFF7ACF800F010006B
:102FC00010BD2DE9FC5F4FF00008C44D4646414658
:102FD00085F8688095F82D0085F86E000F20FFF7C2
:102FE00025F8C04A686605F190031168044643F865
:102FF0002100491C11600A2900DB1660A4F50000BD
:10300000C01E03D1FFF7AAFFFFF77AFFDFF8CCA2BB
:1030100061054FF003070AF1640A4FF4807B1CD569
:1030200095F82D00C8B9C4F34220072815D0FFF742
:1030300095FFFFF765FF286B04F0F804800005D5C5
:103040005A4600210D20FEF7B8FF06E085F86870AB
:10305000D5F88C1009B15046884760044FF001093B
:1030600072D5600571D5E00212D5FFF777FFFFF743
:1030700047FF286B800007D502B05A46BDE8F05FD5
:1030800000210D20FEF799BF05F8687F696A6DE0A1
:1030900000211020FFF73EF8904BC0F309076C3376
:1030A000022200211120FEF7A4FF687B08B907F077
:1030B0007F07A5F86A70200705D595F86C00810692
:1030C00044D5022842D004F0080085F869000220A7
:1030D00085F8680095F82D00A8B38DF804906B462C
:1030E000012203210F20FEF784FF9DF8000000F06D
:1030F000800100F04000B1EB400F07D104F4C04262
:1031000042EA080200210F20FEF764FF286B8000CE
:1031100004D45A4600210D20FEF74FFFD5F88C103D
:1031200009B150468847FFF744FF30B3FFF716FF59
:10313000FFF7E6FE286B800004D55A4600210D20DB
:10314000FEF73BFFA8E408E028E01DE085F8696091
:103150004FF0080885F87D60B9E704F4DE4242EAE2
:10316000080200210F20FEF735FF6AE00029E9D0B0
:1031700002B05046BDE8F05F084701AB01220321D1
:103180000D20FEF7FBFE87E4286B800001D4FFF7DB
:10319000E5FEFFF7B5FE85F87D6075E7200616D5DC
:1031A000F82200210F20FEF715FF95F8690048B1BD
:1031B00085F8696095F82D0020B995F87D0008B173
:1031C000FFF7CCFE85F86890D5F88810CEE7A0030D
:1031D00010D504F4003200210F20FEF7FBFE04207E
:1031E00085F86800D5F88C1009B15046884785F8F5
:1031F0007D6051E43C4814EA0002A3D000210F2076
:10320000FEF7E8FE85F87D60286B800001D4FFF7AB
:10321000A5FEFFF775FEE00401D508200CE02004B0
:103220000DD4E00301D5092006E0600101D50A2094
:1032300002E0A00203D50B2085F8680001E085F8C4
:103240006870D5F88C1091E738B50446C0076B4616
:103250004FF002024FF000014FF026002DD0FEF794
:10326000C8FE9DF80100012220F03C0040F014004F
:103270008DF80100114626200DF10103FEF77EFEB8
:103280006B46012202213620FEF7B3FE9DF80000B6
:103290006B4640F084008DF80000012202213620A8
:1032A000FEF76CFE10208DF8000001208DF8010063
:1032B000022228216B4636200BE0FEF79AFE9DF88D
:1032C00001006B4620F014008DF80100022200215D
:1032D0002620FEF753FEA0071AD507E0180A0020A3
:1032E000F8FF272400000020009027240F208DF8ED
:1032F00000006B4601222A213620FEF73FFE002007
:103300008DF800006B4601222A213620FEF736FE9A
:1033100038BD10B50020FEF79CFE00220421BDE858
:1033200010403620FEF749BE024601210A20FEF772
:1033300051BEF8B50024054626468DF800408007AA
:10334000FE4F0BD580208DF800006B460122002136
:103350000D20FEF713FE012087F87D00E8079DF899
:10336000000021D040F006008DF800006B460122DD
:1033700000210D20FEF702FE03210F20FEF7CAFEFA
:1033800010F4816F1AD040208DF800006B460122A6
:1033900000210D20FEF7F2FD0020FFF7F2FC87F878
:1033A0007D604FF0FF3409E040F002008DF800002E
:1033B0006B46012200210D20FEF7E0FD2046F8BDFE
:1033C00041EA022121F0F002C00703D000211D20B4
:1033D000FEF7F3BD0022F9E770B50446FFF7A4FD40
:1033E0004FF480752A46E00701D04FF44072002167
:1033F0000D20FEF7E2FDE00712D003210F20FEF7BB
:1034000089FE10F4816F0BD0FFF7A8FDA00704D54B
:103410002A4600210D20FEF7D0FD4FF0FF3070BD91
:10342000002070BD38B505466B46012203210420FB
:10343000FEF7DFFDC14C75B12A4600210C20FEF7D6
:10344000BCFD9DF8000040F010008DF80000206BDE
:1034500040F0805008E09DF8000020F010008DF84A
:103460000000206B20F0805020636B460122032176
:103470000420FEF783FD38BD024624212720FEF7F5
:103480009CBD70B50E46044600F0F4F905460021D7
:103490000E20FEF7CBFD0EB1204300E0A043024614
:1034A00000210E20FEF796FD2846BDE8704000F092
:1034B000EEB938B5044602208DF800006B460122B3
:1034C00000212F20FEF75AFD002C08D001208DF896
:1034D000000002466B4600212F20FEF74FFD38BD4D
:1034E00010B5044604212F20FEF7A0FDC0F30B0108
:1034F0002180C0F30B40608008212F20FEF796FD4D
:10350000C0F30B01A180C0F30B40E0800C212F2001
:10351000FEF78CFDC0F30B012181C0F30B406081ED
:1035200010212F20FEF782FDC0F30B41E181C0F393
:103530000B00A08114212F20FEF778FDC0F30B4172
:103540006182C0F30B00208218212F20FEF76EFD50
:10355000C0F30B01A182C0F30B40E08210BD38B56F
:1035600000240094FFF7D5FE002211462C20FEF720
:1035700024FD6B46012206212C20FEF7FFFCFFF7FD
:103580001FFB6B46012203213620FEF732FD9DF81A
:1035900000006B4600F00F008DF8000001220321AF
:1035A0003620FEF7EBFC012002F0A9FD9DF800009B
:1035B0006B4640F0F0008DF8000001220321362018
:1035C000FEF7DCFC5D4880F87D4038BD38B5044628
:1035D000FFF79FFE5A4D5B490522285D00EB8000F6
:1035E000431807212B20FEF7C9FC574B01220E215F
:1035F0002B20FEF7C3FC285D544951F820200C21F4
:103600002820FEF7E7FC4FF4FF1200212820FEF7E8
:10361000E1FC4F4A00212820FEF7DCFC22208DF837
:1036200000006B46012200213620FEF7A7FC072090
:103630008DF8000001226B4611463620FEF79EFCF5
:10364000002226213620FEF7B8FC13208DF800005A
:103650006B4601220C212A20FEF790FC002038BD89
:1036600038B50446FFF755FE4FF4FF12002128201D
:10367000FEF7B0FC364A00212820FEF7ABFC022002
:10368000FEF7E7FC0D20FEF7E4FC042C00D2042436
:10369000224600210A20FEF79DFC10208DF8000034
:1036A0006B46012224212F20FEF768FC38BDF8B5B7
:1036B000044680208DF800006B460122112128204D
:1036C000FEF75CFC0A208DF800006B4601221221F7
:1036D0002820FEF753FC0F208DF800006B460122D6
:1036E00012212820FEF74AFC00258DF800506B4679
:1036F000012229462A20FEF741FC01208DF8000016
:1037000002466B4600212A20FEF738FC012C27D008
:103710000020FEF79EFC6B46022203212A20FEF7C2
:1037200068FC0120FEF795FC9DF800609DF80140C3
:1037300001228DF800506B4600210BE0180A002092
:103740007C9400089C940008BA94000884940008B3
:1037500000FF5F002A20FEF711FC46EA0420F8BDB6
:10376000012002F0CCFC6B46022203212A20FEF746
:1037700040FCD9E708B56B46012204212A20FEF758
:1037800038FC9DF8000008BD08B56B4601220321F6
:103790002A20FEF72EFC9DF8000008BD70B50546F6
:1037A00016460024084605F0ABFA022205F0C6FDD5
:1037B00004F096FFFF2800DDFF202A49012EA1F129
:1037C00008020CD0042D2DD0072D2BD0515D01EB1C
:1037D000810202EBC101244A02EB410133E0042DD6
:1037E0000AD0072D08D0515D01EB810202EB411197
:1037F0001C4A083211440FE0495D1B4A01EB0111DC
:10380000883A02EB810100E0641C0A5D8242FBDB26
:10381000A4F11C001CE0641C0A5D8242FBDBA4F1E5
:10382000170015E0495D01EB8102C2EB81110E4AE0
:103830006832114400E0641C0A5D8242FBDBA4F1A3
:103840001E0005E0641C0A5D8242FBDBA4F111004E
:1038500005F0ACFB05F054FABDE87040034A044B98
:1038600005F024B8369500085A9600087B14AE4738
:10387000E17A843F10B5172000F0DAFD002805D06A
:103880004FF0E0224FF40001C2F8801110BD002873
:1038900005D04FF0E0214FF40000C1F8000170475F
:1038A0000020704710B5344C0221204603F0E1FEA1
:1038B0000028F9D00021204603F06FFE002010BD43
:1038C0002DE9F041984615460F4606460024FFF7BD
:1038D000D1FF0246294810230360274806E0395DDE
:1038E00081810189C907FCD08189641CB442F6DB5F
:1038F000002107E018F8014084810489E407FCD026
:103900008489491CA942F5D31C48001F0360104656
:10391000FFF7BDFF0020BDE8F0812DE9F0411D4615
:103920001646884607460024FFF7A4FF02461348C0
:1039300010230360104808E018F804108181018901
:10394000C907FCD081892970641CBC42F4DB0021CA
:103950000C4606E084810789FF07FCD087896F54F5
:10396000491CB142F6D30548001F03601046FFF71B
:103970008EFF0020CFE70000003001401408014016
:10398000C178532904D101794E2905D0572905D092
:103990000178642904D006E00120704702207047B6
:1039A0004078652801D000207047032070472D48DB
:1039B00008B50268001D0368001D006800902AA178
:1039C000314804F0EFF8012008BD70B52E492F4CA6
:1039D00010224031204600F0A3FE2B494AF6AA20CF
:1039E0004031A1F116020B88834215D00880488827
:1039F0002E23401C488050804FF42A4088809080BD
:103A000056203122C8800A814B8130258D81C881A2
:103A10000A824B828D8215E04888401C4880508085
:103A200088889080C888D080088910814889508112
:103A300088899081C889D081088A1082488A5082FA
:103A4000888A90822046BDE870400F49102240319C
:103A500000F073BE002070470B49102240310B4824
:103A600000F06BBEE8F7FF1F41542B534E3D25304D
:103A700038782D253038782D253038782D312D3176
:103A80002E300D0A00000000D00A002000A400081B
:103A900000F0200200F0100302EB8302102303EA7F
:103AA00090001044FE4A00090229506006D1032804
:103AB00002DD48F2040001E040F40040FDF78FB958
:103AC000014600208A0700D50120490700D5801C47
:103AD0007047FEB50646202000F0FDFCFDF774FFA0
:103AE000F04CA717A04214D0EF4D1021284603F048
:103AF000EAFA012002F003FB1021284603F0E1FA64
:103B0000072002F0FCFAFDF75FFFA0420FD1FFF79C
:103B100026FD00F05BFDFDF707FF002807DB08200E
:103B200000F0D9FCFDF750FF0546A04201D0384611
:103B3000FEBDDB4C300701D4012000E00220E06034
:103B4000217B3046FFF7A4FFE068022804D16068BB
:103B5000032801DD0020E060E068FDF7FFF9304652
:103B6000FFF7AEFFCE49A06000EB8000183111F8DE
:103B700010208DF8002001EB40016261CA788DF8B9
:103B800001204A788DF802204A798DF805208A793B
:103B90008DF806200A89ADF808208A788DF8032070
:103BA00009798DF80410BE49403101EB40016846A7
:103BB000FDF70FFF2846FEBD0120FEF784B910B5C2
:103BC000BA4C00BFFFF7FDF92021204603F065FA4B
:103BD0000128F7D010BD4FF48050FDF707F90220FF
:103BE00002F08DFAFBE7552101EA500100F0550083
:103BF00041EA4000332101EA900100F0330041EA3C
:103C00008000010900F00F0041EA00107047AA216E
:103C1000B1EB102F01D000207047C0B270472DE9E2
:103C2000F0410746A2A003F0B1FFA1A1A54803F00F
:103C3000B9FF0446A34D780605D5A3A003F0A6FF5F
:103C40002819A1A104E0A2A003F0A0FF2819A0A1B7
:103C500003F0A8FF0444B80605D5A0A003F096FF22
:103C600028199EA104E0A0A003F090FF28199EA1AE
:103C700003F098FF0619C7F34204F806214606D55B
:103C80009CA003F083FFA81922469AA105E09CA0FE
:103C900003F07CFFA819224699A103F083FF811944
:103CA000BDE8F041874800F038BE2DE9F04F93B0F1
:103CB0004FF4E13002F03EFA00F0F2FA00F033FC8B
:103CC00000F0F0FC4FF47A7002F019FAFFF77DFE75
:103CD000C82002F014FA00F003FE8D4E8223794AC8
:103CE0008A49304602F012FB8A4803F04FFF8A48A7
:103CF00003F04CFF894803F049FF894803F046FF71
:103D0000854803F043FF834803F040FF854D86A0BC
:103D1000698803F03BFF7F496A4803F043FF694C21
:103D20000746E0197C4903F03DFF0744E0197B4951
:103D300003F038FF0744E019794903F033FF0744E3
:103D4000E019754903F02EFF0744E019714903F0AB
:103D500029FFC119204600F0E0FD6C4801228021B6
:103D6000001F03F078FD304602F0F5FAA888FFF74F
:103D70004EFF0446A98872A003F008FFDFF8E08137
:103D800014B32046FFF74BFF04F07F00FFF72BFF33
:103D9000434C0146207073A003F0F8FE4FF0E0277B
:103DA0004FF40006C7F88061042000F0A7FA2078DD
:103DB000FFF78FFE401C2AD03125E8074FF00400A2
:103DC0002CD000F09BFA2BE004252C46E0074FF0A6
:103DD000040002D000F092FA01E000F0A7FAC82037
:103DE00002F08DF9641EF1D263A003F0CFFE3548D6
:103DF0001E21823000F07FFD32488230FFF7C0FD87
:103E0000022849D026215CA000F087FDDDE70420D0
:103E100000F08CFA13B00020BDE8F08F00F086FAB5
:103E2000322002F06CF96D1EC7D22078C0F3C201B7
:103E3000072916D0042000F061FAC7F80061DFF806
:103E400060914D4699F8F36500F08FFAD5F8F415B6
:103E5000471AFDF767FFFDF785F8E060012E02D0F5
:103E6000A4E0FFF7B8FEB5F80401B84215DA012165
:103E70000F20FEF7DBF801211920FEF7D7F801210A
:103E80000A20FEF7D3F8002685F8E060E0680128F4
:103E900004D0FFF763F885E05AE187E0F9E000001D
:103EA000180000203001CADE00080140000C01406B
:103EB0004D696E69337320C5E4D6C3D0C5CFA2A3C4
:103EC000BA000000300B0020362E384D2C20200088
:103ED0003131306B7062732C202000004368616EBA
:103EE0006E656C20352C20004368616E6E656C2019
:103EF000322C2000416E63686F722025640D0A0029
:103F00005461672025640D0A000000000438014058
:103F100044000240A8990008D49800086499000859
:103F20001C990008FA0A00204D696E69337320BF9E
:103F3000AABBFAB4CECAFDA3BA25640D0A000000DC
:103F40007379735F706172612E6465766963655F12
:103F5000737769746368203D253032780D0A00005C
:103F6000100B00207331737769746368203D25302E
:103F700032780D0A00000000B5C8B4FDBDD3CAD523
:103F80004154C3FCC1EEBDF8D0D0D0E9C4E2B2A622
:103F9000C2EBBFAAB9D8C9E8D6C30D0A0000000019
:103FA000780200200620687085F8F365FCF7DEFFD4
:103FB000050057D0724802F0CEF9FCF7DFFF00F0A1
:103FC0000F07FCF7E0FF00F00F0BFCF7E1FF01909B
:103FD000FDF7AAFD86B2E06801285ED05846FDF7DD
:103FE00099FD8246FDF79FFF0D90FDF79FFF129010
:103FF000FDF79FFF0A90012D52D00020FDF78FFDA5
:1040000005460320FDF7A6FD0C900220FDF7A2FD5A
:1040100083460120FDF79EFD82460020FDF79AFDB4
:1040200001990346CDE904510C9806970396CDF803
:1040300000A0CDE901B053A15F480A9A03F0B2FD98
:104040004FEA0005FCF777FF002D0BDD2069002803
:1040500079D000F08AF9216901F57A71884201D39B
:104060000020206154481E21823000F044FC524858
:104070008230FFF785FC02286AD04F488230FFF774
:104080007FFC03287FF4DDAE13214C4800F045FC93
:10409000D7E64B48FDF790FD86E7FDF737FDA0E733
:1040A0000320FDF757FD05460220FDF753FD0F9055
:1040B0000120FDF74FFD00900020FDF74BFDE1686A
:1040C000034601293BD06122019905A8089780E8A1
:1040D000060801A90F9881E861043AA136480A9AB6
:1040E00003F060FD054660780128ABD10320FDF7A1
:1040F00042FD10900220FDF73EFD01900120FDF7EA
:104100003AFD00900020FDF736FDE16803460129E5
:1041100017D06122129906A8099780E806080D9821
:10412000109ACDE904A02448CDE90226284400E0F5
:1041300009E032A10A9A03F035FD054482E77422B2
:10414000C2E77422E6E729461B4800F0E6FB89E750
:10415000C82001F0D4FF1848823002F050F8A8F8C7
:104160000400FFF779FC00F000F833480168334A97
:1041700001F4E06111430160BFF34F8FFEE70000DF
:10418000440002406D612025303278202530387897
:104190002025303878202530387820253038782090
:1041A0002530347820253032782025303878206149
:1041B000303A25640D0A0000300B00200400002076
:1041C000780200206D632025303278202530387841
:1041D0002025303878202530387820253038782050
:1041E0002530347820253032782025303878202545
:1041F0006325643A25640D0A000000006D722025D5
:104200003032782025303878202530387820253015
:104210003878202530387820253034782025303201
:104220007820253034782530347820256325643A89
:1042300025640D0A000000000CED00E00400FA0502
:104240007047FEE7FEE7FEE7FEE7704770477047FE
:1042500012480168491C0160704710B5AFF3008037
:10426000BDE810404FF4005002F020BC10B5FFF73D
:10427000A3FCBDE81040012002F018BC10B5FFF708
:104280009EFCBDE81040082002F010BC10B5FFF7FE
:1042900096FCBDE81040202002F008BC8000002001
:1042A000F8B501210C2003F088F84FF47070ADF8D8
:1042B000000010248DF8034003258DF80250694654
:1042C000264802F090FE2001ADF800000420244EA4
:1042D0008DF803006946304602F085FE0820ADF8EF
:1042E00000008DF803408DF802506946304602F018
:1042F0007AFE0821304602F0E4FEF8BD0146174878
:10430000052912D2DFE801F00305070A0D0040215C
:1043100009E0802107E04FF4807104E04FF4007160
:1043200001E04FF4707102F0CEBE704701460B48B9
:10433000052912D2DFE801F00305070A0D0040212C
:1043400009E0802107E04FF4807104E04FF4007130
:1043500001E04FF4707102F0B4BE7047000C0140F0
:10436000000801404FF0FF307047DC48006870479C
:1043700070B5DB484FF47A710068B0FBF1F0B0F132
:10438000807F14D220F07F404FF0E024401E606117
:1043900065170F21284600F090F90020A061072042
:1043A00020610521284600F088F9002070BDFEE755
:1043B0001CB52020009000208DF8040008218DF805
:1043C00005108DF80600684602F012FB00201CBDA7
:1043D0007FB52024ADF80C4028208DF80F0003A9EC
:1043E000C04802F000FE0521012002F0B4FE009456
:1043F00000248DF8044008208DF8050001258DF873
:104400000650684602F0F4FA4FF4C06002F0A6F9D4
:1044100017208DF808000F208DF809008DF80A404C
:104420008DF80B5002A802F09EF904B0002070BD78
:10443000AD49024600200968114200D001207047B2
:1044400010B586B002F0AEFE4FF48034204602F084
:10445000C2FE02F0EDFE28B3102002F03FFB022066
:1044600002F02CFB002002F01BFF002002F026FFD0
:10447000A01102F01CFF601002F035FF4FF4E011B4
:10448000204602F0F6FE012002F0FBFE392002F089
:10449000BAFE0028FAD0022002F0F6FE02F0FBFE7F
:1044A0000828FBD1684602F03FFF0121080302F013
:1044B00084FF0121880302F089FF01210D2002F011
:1044C0007CFF06B0002010BD884A118821F0380119
:1044D00001431180704730B5844D044685B02846AD
:1044E00002F0BAFF0021ADF800104FF48270ADF871
:1044F0000200ADF808106815ADF80A00ADF8041018
:10450000ADF80C400720ADF80610ADF80E10ADF870
:1045100010006946284602F0C3FF0121284603F037
:104520003CF805B030BDF0B5704E87B0304602F0B3
:1045300093FF0021ADF800104FF48270ADF8020037
:10454000ADF808107015ADF80A001024ADF804108D
:10455000ADF80C400720ADF80610ADF80E10ADF820
:1045600010006946304602F09BFFA020ADF8140011
:1045700018208DF817005E4F03258DF8165005A9F9
:10458000384602F030FD4020ADF8140048208DF888
:10459000170005A9384602F026FDADF814408DF845
:1045A00017408DF8165005A9384602F01CFD002171
:1045B000304603F02AF80121304602F0EEFF1021C8
:1045C000384602F07EFD07B00020F0BDF8B50124AA
:1045D000ADF8004010208DF80300454E03258DF8FE
:1045E00002506946304602F0FEFC0121304602F0DE
:1045F0006AFDADF8004000208DF803008DF80250F0
:104600006946304602F0EFFC022001F078FDF8BD6B
:104610007FB501250024364A0826ADF8085030B38E
:1046200004208DF80B0002A9104602F0DCFC0021EA
:10463000084602F090FD8DF804408DF80560009565
:104640008DF80650684602F0D3F94FF4407002F03E
:1046500085F806208DF80C000F208DF80D008DF8E0
:104660000E408DF80F5003A802F07DF87FBD8DF845
:104670000B4003208DF80A0002A9104602F0B3FC9B
:104680008DF804408DF8056000958DF80640684669
:1046900002F0AEF97FBD4FF0E020D0F80001C0F38A
:1046A000C050704710B503F015FAFFF7C9FEFFF7C9
:1046B0005FFEFFF78DFE002010BD0907090E0028E0
:1046C00006DA00F00F0000F1E02080F8141D7047BA
:1046D00000F1E02080F80014704700008000002006
:1046E000E4010020000C01400004014000300140C2
:1046F00000080140008870472DE9F04116460F463A
:104700000546002408E000BF37F81410284602F0E0
:10471000ECFA641CA4B2AD1CB442F5D3BDE8F08140
:1047200010B5002306E000BF30F8024B21F813401B
:104730005B1C9BB29342F7D310BD2DE9F05FA0F153
:10474000006415468A468346B4F5803F53D202F092
:10475000CEF9A70AC4F34806C6F50074A54200D8EE
:104760002C46DFF8A49000BF4FF0006000EB8720DC
:1047700080464FF400722449FFF7D2FF00204FF625
:10478000FF7106E0331839F813208A4203D1401C28
:1047900080B2A042F6D3A04225D2404602F0E2F910
:1047A0000020494607E000BF3AF810208319401C5A
:1047B00021F8132080B2A042F6D3134940464FF4AB
:1047C000007200BFFFF798FFA54210D0281B0AEB2C
:1047D000440AA344002685B24FF400747F1CA5420E
:1047E000C2D82C46C0E7224651465846EAE7BDE803
:1047F000F05F02F088B9BDE8F09F13B5012201A96E
:10480000FFF79BFF1CBD0000D00B002038B55E49B0
:104810004FF4A0642246A1F1200001F0B3FD5B49F2
:104820002246A1F5A26001F0ADFD0121042002F0B5
:10483000C4FD4FF48060ADF8000003208DF8020045
:1048400010208DF803006946514802F0CCFB4FF46C
:104850008024204602F02AF94E4908200C60487155
:1048600001208871084602F0C3F838BD10B5002059
:1048700002F035FD0121BDE81040C80502F0A6BDDB
:1048800045490320086070474448817A424809B18D
:10489000052100E001210160704738B514208DF832
:1048A000000002208DF8010000248DF80240012054
:1048B0008DF80300684601F056FF2A208DF80000AD
:1048C0008DF80140684601F04EFF38BD304A00289F
:1048D0004FF48061104601D002F0F3BB02F0F3BB4D
:1048E00010B5FFF793FFFFF7C1FFFFF7D6FFBDE855
:1048F000104000F017BF0A4601462348203801F057
:104900005FBD0A4601462048203801F041BD0A46F5
:1049100001461D48103801F053BD0A4601461A48A9
:10492000103801F035BDF0B500230A2430253726B4
:104930001F4610E0B4EB107F02D905EB107C01E0BC
:1049400006EB107C01F813C001EB430C00015B1C6B
:104950008CF80170DBB29342ECD3F0BD104810B577
:104960000168001D0468001D006808180AD00822AC
:104970000C49FFF7D8FF0B4920460422BDE8104040
:104980001031D0E710BD0000F00F0020F01400201F
:10499000002001408400002094010020901A002093
:1049A000E8F7FF1F8E00002070B5294D28780128F8
:1049B00015D140212748FFF7AAFF0404240C4FF02B
:1049C00000060DD02246C021224800F0A1FF21465A
:1049D000012001F086F9012001F05CF86E6070BDE5
:1049E0002E7070BD1B4910B54031032001F02BFB28
:1049F00081B218484030FFF784FFBDE81040032023
:104A000001F058B870B51448006805281FD1104C43
:104A1000207800281BD16068411C6160052816D1F0
:104A20000020606040210B48FFF771FF05042D0C4A
:104A30000DD02A46C021074800F06AFF2946012010
:104A400001F04FF9012001F025F80120207070BD20
:104A5000B4000020F0190020940100202DE9F0415D
:104A60004C4E88B0002430684B4D688068884B4FAE
:104A700039880840800507D54FF6FF503060287808
:104A8000401C2870FFF7BEFF688839880840000482
:104A900001D500F05BFE688839884FF6FF38084082
:104AA000400504D5C6F800803D48406880476988C5
:104AB00038880140890402D54DF6FF71316069885C
:104AC0000140C80405D54EF6FF703060002000F0AC
:104AD000F0F968883988084000050BD5314800781E
:104AE00010B100F082F902E0022000F0E2F94FF28A
:104AF000FF703060688839880840C00546D54FF699
:104B0000FF6030602348001D00684FF00002000481
:104B100038D56868401C68606868032833D91D4828
:104B2000001F016809072ED4016889B2A9601E49D7
:104B30004FEA0D0301EB8407D7F8007CBFB243F8BE
:104B40002470641C082CF5D3AC6844F00104AC60FC
:104B5000AC68A4B20460AC6824F00104AC60AC683A
:104B6000A4B2046030684005FCD5C6F8008000207F
:104B700053F8204001EB8006A4B2C6F8004C401C5C
:104B80000828F5D36A60072000F093F908B0BDE863
:104B9000F0810000445C0040BC000020B80100200F
:104BA0001C0100209801002000500040FFF756BF74
:104BB0004FF4802001F07ABF10B5FFF7CFFE7648A2
:104BC00000240068847200F0F1F801F01DFA7348C7
:104BD000046010BD704810B50068714A00218172F0
:104BE000D2794272C172084600F0D4FE4FF40071CF
:104BF000002000F0E7FE1021002000F0F8FE402128
:104C0000002001F04AF88021002001F03AF800204D
:104C100000F07CFF634890F82C10002001F07FF832
:104C2000002000F047FF0021012000F0CBFEC02152
:104C3000012001F026F82021012000F0D8FE0021FB
:104C4000012000F0EAFE4FF4C061022000F0BAFE3D
:104C50004FF48071022001F014F80021022000F0CE
:104C6000DCFE2021022000F0C2FE0021032000F023
:104C7000A9FE4FF48871032001F00FF840210320B2
:104C800001F04DF84FF44051032000F0C6FE002122
:104C9000032000F0ACFE002000F084FC3F4901201E
:104CA000086010BD4048807A002802D03B490520AA
:104CB00008607047394904200860704739481C383B
:104CC0000178202901D1002101707047704710B18F
:104CD0003448183870473049082009680882002095
:104CE000704710B12F48183870472B4908200968C1
:104CF000088200207047284A10B500211268212838
:104D000002D0202808D019E0107800F07F00212878
:104D100014D1AFF231010AE0107800F07F002128B1
:104D200001D1AFF255011F4B20201C3B187029B157
:104D30000020916150828847002010BD022010BDE4
:104D400015490968097801F07F01212903D102285A
:104D500003D0222801D0022070470020704711495B
:104D6000103900F049BA0F49083900F045BA0A492C
:104D70000968C978042901D900207047094A3032EE
:104D800002EBC10100F038BA09B9012801D90220AB
:104D90007047002070470000AC0100209401002003
:104DA0004A9700081C010020901A002010B501202D
:104DB000FFF78CFD6248012101600021614A01601A
:104DC000031D19604FF4E05111800160002010BDF7
:104DD00010B55B4C01202060211D00200860FFF70A
:104DE00075FD03202060002010BDF8B55449002057
:104DF00000900A68544B554C92B200BF03EB8005FB
:104E0000D5F8005CADB244F82050401C0828F5D31A
:104E100042F48060086040F00100086020F0010565
:104E20000D60474A121D10684005FCD54FF6FF3053
:104E30001060002054F8206003EB8007B6B2C7F87A
:104E4000006C401C0828F5D345F00800086008688D
:104E500080B240F0040008603D4B1868009018686C
:104E600020F0030040F0010018603A48046844F064
:104E7000040404601468E40409D54EF6FF74146059
:104E80000A6892B222F008020A600099196001686B
:104E900021F004010160F8BD10B5294C206880B2F2
:104EA00020F004002060FFF7EFFC4FF43F4020604B
:104EB00010BD2DE9F041284C072800D02070227841
:104EC000254D0627052104261D48062A0BD2DFE8BA
:104ED00002F0030C11161E27686810B12170BDE89E
:104EE000F081FFF7D9FF2770F9E7FFF7D5FF2670AC
:104EF000012022E00220607003202070EFE760783C
:104F0000401E607060780028E9D12670E7E70268EB
:104F100092B242F01002026021700A206070DEE757
:104F20006178491E617061780029D8D1016889B221
:104F300021F010010160277000206860CFE70000B9
:104F4000405C0040B801002000500040701A002072
:104F50000070004010ED00E09C01002010B5FB4CFB
:104F600030B1FB4800680068804720680A3010BDF7
:104F7000216801200882002010BDF44810B50068A7
:104F8000F44AC1785278914203D882780AB982886B
:104F90000AB1022010BD8172ED4800684068804768
:104FA000002010BD10B5E94C30B1E94800688068B8
:104FB000804720680C3010BD216801200882002045
:104FC00010BD10B5E14CE44A20681268C1789269BE
:104FD0004079904721688A7A22B118B9087908B9CE
:104FE000887808B1022010BDD9480068C0688047A1
:104FF00020684179C172C1780173002010BDD34986
:1050000010B5096860B1D548002202800A785306BD
:105010000AD002F07F02012A16D0022A16D001E03F
:1050200002200882002010BD497A8A06027802D543
:1050300042F0020201E002F0FD0249060270D1B224
:1050400011D401F0FE0110E0C44810BD4A791107E7
:105050001306C34A02EB9161D1F8001C07D5C1F3D6
:10506000011106E0017841F00101017003E0C1F394
:1050700001310129F6D0B648006800698047E3E7AE
:105080002DE9F041B1480068017811F07F0102D0AC
:10509000022905D066E0417A01F0DF0141724EE05D
:1050A000418800295ED10179F1BB4179AC4D21F0F5
:1050B00080040A0605EB8402A64BD2F8002C03D527
:1050C000C2F30112120102E0C2F3013212031E7890
:1050D0002346A64246D93AB3807A28B308064FEA57
:1050E00084000ED52844D0F8000CC0F3011001282C
:1050F00021D1184600F09CFD2046302100F077FCBD
:1051000019E04619D6F8000CC0F30130012812D17D
:105110004BF68F7748F28008A4B1184600F076FD70
:10512000D6F8000C384000E01CE080F4405040EA23
:105130000800C6F8000C86480068406980470020D7
:10514000BDE8F081874890F82C10002000F0E7FDC2
:10515000D5F8000C384080F4405040EA0800C5F80B
:10516000000CE8E70220EBE770B578487C4D036857
:10517000597921F0800005EB80000C06D0F8004C36
:1051800021F0800203D5C4F30114240102E0C4F32A
:10519000013424036F4D2D78954210D95A8872B985
:1051A0006CB19A7A5AB10906D0F8001C48F2800214
:1051B00007D548F6BF73194081F0100106E00220C0
:1051C00070BD4BF68F73194081F480511143C0F8C4
:1051D000001C5F48006880698047002070BD5B4804
:1051E00010B50068417A41F02001417258480068CA
:1051F000C0698047002010BD544A13685A8A10B114
:105200000868104470478888801A18820020704708
:105210002DE9F047DFF83481534F4FF03009D8F8CB
:10522000001001F11005088A0E7A08B9042E04D086
:10523000AC88A04216D8042615E04848801E0178A4
:10524000012903D00726102038802BE0474A00218F
:105250001268474B120403EBD2325160A7F800905A
:1052600001701FE00226844200D90446A968204646
:1052700088478246002000F01DFD01462246504628
:1052800000F046FB2146002000F02BFD2888001B83
:105290002880688820446880A7F8009035494FF43A
:1052A00040500880D8F800000672BDE8F08770B55D
:1052B000264D2868017844784A0606D001F07F0020
:1052C000012828D002282BD035E0092C06D0052C47
:1052D00007D0032C0ED0012C14D02CE0FFF74DFE8C
:1052E00028E0C1787F292ED8817861BB818851BBA5
:1052F000807A27E0C17801291DD18088D8B9FFF7CD
:105300006EFF17E0C178012915D1818899B9407ADB
:1053100080060AD40FE00B2C0DD1FFF752FE09E0F6
:10532000012C02D0032C03D005E0FFF7A9FE01E019
:10533000FFF71AFF48B108492046096849698847BC
:10534000032819D008B1082024E017E0AC010020A0
:10535000B40100206C010020B0010020A601002053
:10536000005000401C010020BC010020505C0040A7
:1053700000600040BA01002009200BE0DE4A062050
:1053800000211268DD4B120403EBD2325160DC4A7B
:10539000302111802968087270BDF8B5D94CDA4DFA
:1053A00009262068002729684278062A05D0AAB174
:1053B000082A4ED00A2A52D06EE0027852066BD1EB
:1053C0008078012804D0022804D0032804D063E0A8
:1053D000C96959E0096A57E0496A55E04288BABB91
:1053E000C288022A58D1027992BB0278530601D1B1
:1053F000838833B102F07F02012A05D0022A0DD042
:105400004AE0AFF205413FE08A69407900219047C8
:10541000F0B92068807A0028F3D13DE0417901F0AD
:105420000F0001F070020B06B84901EB8001D1F8C2
:10543000001C03D5C1F30111090102E0C1F30131E0
:105440000903B34B1B78834226D90AB90029D8D166
:1054500022E0007840061FD1AFF2FF4114E002784D
:1054600002F07F02012A17D1827AAAB142889AB942
:1054700002798AB9C288012A0ED18A69407900214D
:10548000904748B9AFF2E34131B12068478281616A
:1054900000208847002006E02968206809694078D4
:1054A0008847032813D021680A8AA2F57F43FF3B6F
:1054B0000BD002280ED06AB10878000625D5C8881E
:1054C000009082420AD9088218E00E72F8BD206866
:1054D0000672F8BD4FF008000872F8BD0ED22868B9
:1054E0008C4B90F82C00824201D21F7006E0B2FB78
:1054F000F0F400FB142008B901201870286890F817
:105500002C008882BDE8F84082E6032008728249B8
:1055100000030880F8BD814810B590F82C100020D9
:1055200000F0FDFB77480068007A082802D00928BF
:1055300009D006E078494FF4805008807049102067
:105540000880002010BD012010BD70B56A480068B9
:105550006C4D0004C10B69480144098989B200EB14
:1055600041042868017A09290FD0217801706178F7
:105570004170A08800F03CFD29684880208900F037
:1055800037FD29688880A089C880286801210172B8
:10559000C08820B1FFF701FFBDE87040BBE7FFF70F
:1055A00086FEF9E7F0B55A49584D48F68F770B78E3
:1055B000002148F2800C0BE0CEB205EB8604D4F853
:1055C000002C3A40324342EA0C02C4F8002C491C39
:1055D0009942F1D3484940F08000091F0860F0BDAE
:1055E00010B5484C2068017A022904D0042902D061
:1055F000062905D015E0FFF70BFE2068007A11E0C0
:105600004178052909D10178490606D1C078FFF70C
:10561000C9FF43480068006A80473B4800688068CB
:105620008047082021680872BDE8104073E710B574
:10563000344C2068007A022811D004280FD00328A7
:1056400004D0052802D0072805D008E000F00EF8A5
:105650002068007A04E02C480068C0688047082071
:1056600021680872BDE8104055E770472DE9F04702
:10567000244EDFF88C803027356835F8100FA96884
:10568000A9B100B3AC88844200D9044620468847BB
:1056900081462888001B2880688820446880002074
:1056A00000F013FB01462246484600F044F92888E2
:1056B00048B119494FF4405008800021084600F0D5
:1056C00010FBA8F800702888A988884201D303201D
:1056D00001E018B1052031680872E6E5316806205E
:1056E0000872054900200968044A090402EBD13117
:1056F0004860A8F80070D8E5505C004000600040A9
:10570000BC010020AC010020B0010020005000408E
:105710006C010020A4010020BA0100201C0100201F
:10572000B401002006480549022201600A72064AB7
:105730000449C0E90112086800470000901A0020DF
:10574000AC0100201C010020700100202DE9F84F61
:105750000020ADF80000DFF89CA14BF6BF7648F2C0
:105760008007644D644C40F68F7848F60F7BDFF875
:105770008C910AF1440A31E00888614A10F00F0068
:10578000107034D05F4901EB8001D1F8002CADF8E6
:105790000020BDF8002012040BD5D1F8002C02EA3D
:1057A0000802C1F8002C584901EB800050F8040CA5
:1057B0008047BDF80000000610D5514851490078D7
:1057C00001EB8001D1F8002C02EA0B02C1F8002C99
:1057D0004E4901EB800050F8040C8047DAF80000D5
:1057E0004946A9F800000004C6D4BDE8F88F28682F
:1057F0002080208800F030006080208800F4405035
:1058000020802868304080F4005080F02000384329
:1058100028600888C006286815D400EA0B002860B4
:10582000FFF7DEFE26E02188890401D580F40050D0
:105830006188C90626D46188890601D580F02000D8
:1058400038432860D1E7ADF80000BDF8000000053E
:1058500006D5286800EA08002860FFF776FE09E010
:10586000BDF800000004B9D5286800EA08002860E7
:10587000FFF7DDFE286821883040C904D3D580F4C5
:105880008050D0E780F01000D5E72DE9F041194CA9
:105890001B4E1C4F4434194D26E000BF47F6FF70E5
:1058A0002060288800F00F0107EB81003170D0F8EC
:1058B000002C92B2130408D5D0F8002C40F68F7358
:1058C0001A40C0F8002C104809E012060CD5D0F898
:1058D000002C48F60F731A40C0F8002C0B4800EB60
:1058E000810050F8040C8047206828800004D5D43B
:1058F000BDE8F081005C0040BA010020BE0000203D
:10590000A801002000500040E4000020C800002052
:10591000104B10B5521C520803EB41010AD000BFD6
:1059200010F8013B521E10F8014B43EA042321F802
:10593000043BF5D110BD074B521C520803EB41014B
:1059400006D000BF31F8043B20F8023B521EF9D1CB
:105950007047000000600040FC4908607047FB4849
:10596000006880B27047F949091D08607047F74820
:10597000001D006880B27047F4480830006880B2AB
:105980007047F2490C3108607047F0480C300068ED
:1059900080B27047ED4920F0070010310860704771
:1059A000EA481030006880B27047E94A02EB800094
:1059B000C0F8001C7047E64901EB8000D0F8000CED
:1059C00080B270478200E2480244D2F8000C48F6E8
:1059D0008F1318400843C2F8000C7047DC4901EBF4
:1059E0008000D0F8000CC0F34120400270478200D4
:1059F000D7480244D2F8000C48F6BF731840CB06D3
:105A000001D580F01000890601D580F0200048F211
:105A100080010843C2F8000C70478200CC48024461
:105A2000D2F8000C4BF68F731840CB0401D580F4EC
:105A30008050890401D580F4005048F28001084369
:105A4000C2F8000C704700B50A460346FFF7B3FFE3
:105A50009900BF4B012A194407D0022A04D120F033
:105A6000100000BFC1F8000C00BD20F48050F9E721
:105A7000B74901EB8000D0F8000CC0F30110000121
:105A80007047B34901EB8000D0F8000CC0F301303F
:105A9000000370478100AE480144D1F8000C48F67D
:105AA000BF72104080F0300048F280021043C1F80D
:105AB000000C70478100A6480144D1F8000C4BF659
:105AC0008F72104080F4405048F280021043C1F8B9
:105AD000000C704781009E480144D1F8000C48F644
